:020000040800F2
:10000000401500205D8200086D8000086F800008A8
:1000100000000000000000000000000000000000E0
:1000200000000000000000000000000073800008D5
:1000300000000000000000007580000877800008C4
:10004000073700081B4000083F4C00088F4C000891
:10005000DF4C0008BF610008C3610008C7620008E8
:10006000000000006B8000087F8000088980000885
:100070009380000807820008138200089D80000812
:10008000A7800008BD820008BF820008C182000866
:1000900000000000C3820008C5820008C782000873
:1000A000C9820008CB820008CD820008B180000818
:1000B000BB800008CF8200080000000000000000A4
:1000C00010B50400002C01D1012037E0A069002800
:1000D000FFD184202058002805D1002080216054C1
:1000E000200001F0C7F924208421605020680068B6
:1000F0000121884321680860200000F04BFB0128A3
:1001000001D101201AE0A06A002802D0200000F0EE
:10011000C9FC206840680A490140206841602068A5
:1001200080682A218843216888602068006801214E
:10013000014320680160200000F026FD10BD000092
:10014000FFB7FFFF38B50400002C01D101201CE0EF
:1001500024208421605020680068012188432168A0
:10016000086000252068056020684560206885607B
:10017000200001F011FA8C20255084202550882081
:100180002550E56680202554002032BD70B504005E
:100190000D00160088202058202826D1002D03D0DD
:1001A000300080B2002801D101201FE0A06880212A
:1001B0004901884207D12069002804D12800C007DE
:1001C00001D5012012E08020205C012801D102200D
:1001D0000CE00120802160540020E066320092B2E1
:1001E0002900200000F066FD00E0022070BDF8B597
:1001F00004000F00160084202058202858D1002F1A
:1002000003D0300080B2002801D1012051E0A06865
:1002100080214901884207D12069002804D1380093
:10022000C00701D5012044E08020205C012801D1D5
:1002300002203EE001208021605427655420265290
:100240005620265200258C202550212084216050E4
:10025000A06F00281FD01748A16FC8621648A16F71
:1002600008631648A16F4863A06F856333009BB293
:10027000206802002832216DA06F01F073FA002877
:1002800009D010208C21605080202554202084210A
:10029000605001200DE04020216808628020255434
:1002A000206880688021014320688160002000E090
:1002B0000220F2BD390E00086F0E00089D0E0008E6
:1002C00010B50400206800683A49014020680160C8
:1002D000206880683849014020688160E06E01280C
:1002E00005D12068006810218843216808602068D3
:1002F000806800061AD520688068802188432168BC
:100300008860A06F002811D00020A16F8863A06FC3
:1003100001F084FA002809D0A06F01F08BFB20289F
:1003200004D110208C216050032042E020688068B6
:1003300040061AD52068806840218843216888607B
:10034000E06F002811D00020E16F8863E06F01F0BA
:1003500065FA002809D0E06F01F06CFB202804D179
:1003600010208C216050032023E000200100562241
:10037000A15201005E22A1520F2122681162616E1A
:1003800080229205914205D12168896910220A4391
:1003900021688A612168896908220A4321688A6183
:1003A00020218422A1508822A150E0668C21605037
:1003B000002010BD1FFEFFFFFEFF7FEF10B5040001
:1003C0002068006829490140206801602068806831
:1003D0002749014020688160E06E012805D120682E
:1003E0000068102188432168086020688068400602
:1003F0002BD5206880684021884321688860E06FA1
:1004000000280CD01B48E16F8863E06F01F04CFAC4
:10041000002829D0E06FE16F896B884724E0002035
:1004200001005E22A152A0650F212268116221689D
:10043000896908220A4321688A6120218822A15003
:10044000E066200001F054FB0EE0002001005E2277
:10045000A152A0650F212268116220218822A1509B
:10046000E066200001F044FB002010BDDFFEFFFF2E
:10047000FEFFFFEF070F0008FEB504002068C76904
:1004800020680568206880680090B748384002906E
:10049000029800280FD1202007420CD028400028C5
:1004A00002D10098C00006D5206F002802D020009D
:1004B000216F884756E10298002800D1A3E0AB489D
:1004C00000990140002904D1A9492940002900D1FF
:1004D00099E001210A003A40D2B2002A08D0EA0588
:1004E00006D5226811628C22A2580A438C23E2505E
:1004F000022217420CD0009B0B40DBB2002B07D02E
:1005000023681A628C23E658042333438C26A351B4
:1005100004231F420BD0009E3140C9B2002906D0EF
:1005200021680B628C2161580A438C21625008219A
:100530000F420CD0AA0603D4009A1040002806D01F
:10054000206801628C20205801438C20215080209B
:100550000001074209D0690107D5216808628C2093
:100560002058202101438C2021508C202058002825
:1005700048D0202007420BD02840002802D1009804
:10058000C00005D5206F002802D02000216F8847C9
:100590008C20205801904026206880683040002838
:1005A00004D1019828210140002925D0200000F025
:1005B00021FC206880680640002E19D020688068E1
:1005C0004021884321688860E06F00280CD069488A
:1005D000E16F8863E06F01F067F9002812D0E06FE7
:1005E000E16F896B88470DE0200001F0D9FA09E03E
:1005F000200001F0D5FA05E0200001F0D1FA00203A
:100600008C216050AEE0E06E012874D110200742CA
:1006100071D005426FD0216808622068806840066A
:100620003ED5E06F00684668300080B2002836D0C2
:1006300030005C21615A80B2884230D25E2026525E
:100640002020E16F09680968014000291ED1216856
:100650000968494A0A4021680A60216889680122BC
:100660009143226891602168896840229143226801
:100670009160882160500020E066206800681021A9
:10068000884321680860E06F01F0C8F85C20205AB8
:100690005E21615A411A89B2200002F0CDFA61E070
:1006A0005C20205A5E21615A461A5E20205A00289A
:1006B00020D0300080B200281CD0206800682F496C
:1006C000014020680160206880682D490140206851
:1006D00081602020882160500020E066206720682B
:1006E00000681021884321680860310089B2200029
:1006F00002F0A2FA36E080204003074208D00099B9
:10070000490205D521680862200002F061FB29E05A
:10071000802007420CD02840002802D10098000217
:1007200006D5606F002802D02000616F884719E06D
:100730004020074206D02840002803D0200000F0C7
:10074000FAFB0FE0380205D5680003D5200002F05F
:1007500040FB07E0F80105D5002D03D5200002F08D
:1007600039FBFFE7F7BD00000F0800000100001093
:1007700020010004EF0E0008FFFEFFFFDFFEFFFF79
:10078000FEFFFFEF010084200A588820085810431C
:1007900070470000F8B584B00600002738006946AD
:1007A0000870B94831688142FFD0B16832690A43A4
:1007B00071691143F2690A43716E1143326812681C
:1007C000B24B13400B433268136032685268B04B2F
:1007D0001340F2681A4333685A60B2690392326870
:1007E000824203D00399326A0A43039231688968CE
:1007F000A84A0A4003991143326891603168C96A76
:100800000F229143726A0A433168CA623168A24A70
:10081000914215D1A14909688907890F002905D09E
:10082000022905D006D3032906D007E03D002FE0BA
:1008300002252DE004252BE0082529E0102527E0DE
:100840003168974A914201D13D0021E031688142EF
:100850001DD192490968C02212010A40002A0CD019
:100860008021C9008A420CD0802109018A4206D029
:10087000C02109018A4206D007E03D0008E00225B8
:1008800006E0042504E0082502E0102500E010251C
:100890003168814264D12800C0B2002806D0022805
:1008A00008D0042808D008280AD00CE002F02DFE59
:1008B00004000CE0B34C0AE002F0CAFD040006E0BC
:1008C0008024240203E03C00012069460870002CCB
:1008D00000D1CEE02000C649726A02235A43895AE9
:1008E00002F05BFE02900298716803225143884235
:1008F00006D370688021490148430299884203D297
:10090000012069460870B4E02000B949726A0223E8
:100910005A43895A02F041FE0021802252000023EE
:1009200002F092FE02000B0070684008002180185F
:1009300059417268002302F0A0FE01900198C02185
:100940008900884208D3019880214903884203D254
:1009500001983168C8608CE001206946087088E021
:1009600080242402F069A04248D12800C0B20028A7
:1009700006D0022808D0042808D008280AD00AE0A7
:1009800002F0C3FD04000AE07E4C08E002F060FDC6
:10099000040004E003E03C00012069460870002CDC
:1009A00067D020009249726A02235A43895A02F0A2
:1009B000F4FD02214843716849084018716802F04B
:1009C000ECFD80B201900198102813D3019880218A
:1009D000490288420ED20199B3480840019949085A
:1009E0004907490F0143684641806846408831689D
:1009F000C8603EE00120694608703AE02800C0B2B5
:100A0000002806D0022808D0042808D008280AD0D8
:100A10000AE002F07AFD04000AE05A4C08E002F015
:100A200017FD040004E003E03C0001206946087063
:100A3000002C1ED020006E49726A02235A43895A44
:100A400002F0ABFD716849084018716802F0A5FD1D
:100A500080B201900198102808D3019880214902A2
:100A6000884203D201983168C86002E001206946DB
:100A7000087001206A2170526821705237677767C9
:100A80006846007805B0F0BD00800040F369FFCFF4
:100A9000FFCFFFFFFFF4FF11003801405410024068
:100AA0000044004000B52821415CC90707D5016812
:100AB00049687E4A0A40C16A114302685160282190
:100AC000415C890707D501684968794A0A40016B8A
:100AD0001143026851602821415C490707D501682C
:100AE0004968B54A0A40416B1143026851602821A8
:100AF000415C090707D501684968B04A0A40816B23
:100B00001143026851602821415CC90607D501687C
:100B10008968AB4A0A40C16B114302689160282181
:100B2000415C890607D501688968A64A0A40016CBC
:100B30001143026891602821415C490614D501687F
:100B40004968A14A0A40416C114302685160416CF6
:100B500080225203914207D1016849689B4A0A40AA
:100B6000816C1143026851602821415C090607D558
:100B7000016849689E4A0A40C16C1143026851608D
:100B800000BD00000024F4007CB5050000248C208A
:100B90002C5002F0A7FD06002868006800070CD55D
:100BA000A34800903300002280218903280000F030
:100BB00021F8002801D0032019E0286800684007C8
:100BC0000CD59B480090330000228021C9032800E7
:100BD00000F010F8002801D0032008E02020842134
:100BE000685088216850EC6680202C54002076BD27
:100BF00044820008F4B504000D001F00069E206822
:100C0000C0692840A84201D1012000E000206946C7
:100C10000978884245D10020C0438642EFD002F0D7
:100C200061FDC01B864201D3002E15D120680068EB
:100C30008049014020680160206880680121884364
:100C40002168886020208421605088216050002025
:100C500080216054032025E0206800684007CED53D
:100C6000802000012168C96901400029C7D021689E
:100C70000862206800686F490140206801602068B0
:100C80008068012188432168886020208421605089
:100C9000882160508C216050002080216054032006
:100CA00000E00020F2BD0000F0FF0000FFFFFDFFAC
:100CB000FFFFFEFF70B5030099655C201A525E20AD
:100CC0001A5200201867802464019D68A5420AD149
:100CD0001D69002D03D1694D60269D5324E0FF2539
:100CE00060269D5320E09D68002D0AD11D69002DCE
:100CF00003D1FF2560269D5316E07F2560269D5376
:100D000012E09D6880267605B5420AD11D69002D46
:100D100003D17F2560269D5306E03F2560269D5325
:100D200002E0050060269D538C2558512225882617
:100D30009D511D68AD6801262E431D68AE605D6E35
:100D40008026B605B54221D1150068269E5BADB25E
:100D5000B5421BD39D68A54205D11C69002C02D168
:100D6000474C1C6701E0474C1C67802418551868E5
:100D70000068802464000443186804601868806870
:100D80008024640504431868846013E09D68A542CC
:100D900005D11C69002C02D13B4C1C6701E03B4C87
:100DA0001C67802418551868006890246400044368
:100DB00018680460002070BDFFFFFBFFFF7FFFFF8E
:100DC000FFEFFFFFFFDFFFFFFFFFEFFFFFFF9FFFD3
:100DD00001680968C022914302681160016889684E
:100DE0002B4A0A4001688A60202184228150704782
:100DF000FFFFF7FF00B501680968264A0A4001684D
:100E00000A6001688968244A0A4001688A60C16EE4
:100E1000012905D101680968102291430268116017
:100E20002021882281500021C166016700BD000099
:100E3000FFFFFF015FFEFFFF38B50400A56A2068D1
:100E4000006880060FD40020562168522868806808
:100E50008021884329688860286800684021014310
:100E60002868016002E0280000F082FE31BD38B53C
:100E70000400A56A280002F03BFC31BDFF01000020
:100E8000F11100087D100008E90F0008590F000853
:100E9000FFFF7FFFDFFEFFFFFEFFFFEFF8B504005F
:100EA000A56A84202F5888202E582868806800065C
:100EB00007D5212F05D10020562168522800FFF7C1
:100EC00087FF28688068400607D5222E05D10020BC
:100ED0005E2168522800FFF78DFF8C2028581021D2
:100EE00001438C202950280000F05AFEF1BD38B58E
:100EF0000400A56A00205E2168525621685228002D
:100F000000F04EFE31BD38B50400A56A0020010096
:100F10005E22A9520F212A68116229688969082274
:100F20000A4329688A6120218822A950E86628009E
:100F300000F0DEFD31BD10B50400206800684021DE
:100F40008843216808602020842160500020606769
:100F5000200000F00DFE10BDF8B504006020265AF8
:100F600088202058222838D12068406A070038009D
:100F700031000140A06D0170A06D401CA0655E2095
:100F8000205A401E5E2160525E20205A00282AD13D
:100F900020680068954901402068016020688068E9
:100FA0000121884321688860202088216050002525
:100FB0002567E06E01280BD1206800681021884366
:100FC000216808605C20215A200001F035FE02E013
:100FD000200000F0D9FDE56605E020688069082161
:100FE000014320688161F1BDF8B504006020265AF4
:100FF00088202058222839D12068406A0700A06D37
:1010000000903000384000990880A06D801CA065D9
:101010005E20205A401E5E2160525E20205A002829
:101020002AD1206800687149014020680160206869
:1010300080680121884321688860202088216050D1
:1010400000252567E06E01280BD12068006810217B
:101050008843216808605C20215A200001F0ECFDE3
:1010600002E0200000F090FDE56605E02068806960
:101070000821014320688161F1BD0000FEB5040034
:101080006020205A6946C8802068C66920680768C1
:1010900020688068029088202058222800D09EE096
:1010A0006820205A6946488068464088002879D0E0
:1010B00020252E4276D02068406A6946888068469E
:1010C00080886946C9880140A06D0170A06D401CF0
:1010D000A0655E20205A401E5E2160522068C069D3
:1010E00006007007400F002834D001200100314075
:1010F000C90708D5F90506D5216808628C21615811
:1011000001438C22A15002210E420BD0029A0240D0
:10111000D20707D5226811628C22A35804221A43F1
:101120008C23E250042216420AD0029B1840C007CA
:1011300006D5206802628C20205801438C20215063
:101140008C202058002805D0200000F029FD002028
:101150008C2160505E20205A0028A5D120680068AC
:10116000834901402068016020688068814901400E
:10117000206881608820255000252567E06E0128C1
:101180000BD12068006810218843216808605C202A
:10119000215A200001F050FD02E0200000F0F4FC94
:1011A000E56681E75E20205A694608806846008827
:1011B00000281AD0684600886821615A884214D2F3
:1011C000206880686C490140206881606B48206716
:1011D00020680068202101432068016005E0206844
:1011E00080690821014320688161F7BDDFFEFFFFB0
:1011F000F8B584B004006020205A6946C880206891
:10120000C669206807682068806802908820205896
:10121000222800D0A4E06820205A69464880684609
:101220004088002800D17EE020252E427BD0206817
:10123000406A69468880A06D039068468088694648
:10124000C988014003980180A06D801CA0655E20C4
:10125000205A401E5E2160522068C0690600700757
:10126000400F002837D0012001003140C9B20029C9
:1012700008D0F90506D5216808628C216158014320
:101280008C22A15002210E420CD0029A0240D2B20E
:10129000002A07D0226811628C22A35804221A4324
:1012A0008C23E250042216420BD0029B1840C0B29D
:1012B000002806D0206802628C20205801438C2030
:1012C00021508C202058002805D0200000F068FC18
:1012D00000208C2160505E20205A00289FD1206879
:1012E0000068234901402068016020688068214926
:1012F0000140206881608820255000252567E06E28
:1013000001280BD1206800681021884321680860FB
:101310005C20215A200001F08FFC02E0200000F048
:1013200033FCE5667BE75E20205A69460880684604
:10133000008800281AD0684600886821615A8842CF
:1013400014D2206880680C490140206881600C48F4
:10135000206720680068202101432068016005E0C3
:1013600020688069082101432068816105B0F0BDD3
:10137000FFFEFFFFFEFFFFEFFFFFFFEF590F00082B
:10138000E90F000881B0012082490A6802430A601F
:1013900009680840009000988020400594490A6838
:1013A00002430A60096808400090009801B0704745
:1013B00010B586B004001422002101A802F099F9AA
:1013C00020688C49884224D18020400371490A68F2
:1013D00002430A600968084000900098022086498C
:1013E0000A6802430A6009680840009000980120DA
:1013F0000190032002900020039001A97F4802F091
:1014000083F9002200210C2002F0ADFB0C2002F039
:10141000B4FB06B010BD1CB5040020688021C905CE
:10142000884211D10121724802680A4302600068B3
:10143000014000910098002200210F2002F093FB50
:101440000F2002F09AFB14E020686D49884210D109
:101450000221674802680A43026000680140009167
:10146000009800220121102002F07DFB102002F0E4
:1014700084FB13BD70B586B00400142200216846B9
:1014800002F037F920685F4988423DD18020C001D1
:1014900040490A6802430A600968084005900598B7
:1014A000022055490A6802430A6009680140059113
:1014B0000599C0210091019000250295039504959E
:1014C00069464E4802F020F94F4E504830603320B4
:1014D00070601020B060F560802030617561B5618A
:1014E000F5613562300000F09FF8002801D002F06D
:1014F00093FDA667B462002202211B2002F033FB99
:101500001B2002F03AFB42E02068414988423ED16C
:101510008020800236490A6802430A600968084050
:1015200005900598012034490A6802430A60096859
:101530000140059105990C2100910221019100259E
:101540000295039504906946A020C00502F0DCF8DE
:10155000304E31483060352070601020B060F5604A
:10156000802030617561B561F5613562300000F051
:101570005BF8002801D002F04FFDA667B46200229C
:1015800003211C2002F0EFFA1C2002F0F6FA06B04C
:1015900070BD00004010024010B5040020681949D9
:1015A00088420FD11D4801681D4A0A400260C021CF
:1015B000124802F097F9A06F00F08EF81B2002F09D
:1015C000E3FA13E02068124988420FD10848016805
:1015D000144A0A4002600C21A020C00502F082F9E2
:1015E000A06F00F079F81C2002F0CEFA10BD0000C8
:1015F0003C1002400024014034100240000400501E
:101600000004004000380140440E00201C0002404D
:1016100000440040A00E0020440002404010024060
:10162000FFBFFFFFFFFFFDFF10B50400002C01D13D
:10163000012050E020689B494018142101F0ADFFC3
:101640008000206402202521605420680068BA4987
:1016500001402068016020680068A168E2680A43D0
:101660002169114362690A43A1691143E2690A438E
:10167000216A1143014320680160200000F004FA50
:10168000A0688021C901884201D1002060602079D2
:101690008006800E616C0860E06CA16C4860606838
:1016A00000280CD06068052809D2200000F006FA56
:1016B0000020216D0860A06D616D486003E000208E
:1016C00020656065A0650020E06301212522A1540A
:1016D00024216054002010BD70B50400002C01D1FD
:1016E00001203EE0206800680121884321680860ED
:1016F00020686C494018142101F04FFF80002064DD
:101700000025206805608D48016801224023E35CC4
:101710001C261E40B2400A430260200000F0B4F9CB
:10172000606C0560E06CA16C4860606800280AD0BD
:101730006068052807D2200000F0C0F9206D056020
:10174000A06D616D486025656565A565E5622563E9
:101750006563A563E5632800252160542420255492
:10176000002070BDF7B504001F00002006002421F2
:10177000615C012901D102204FE0012529002422CA
:10178000A1542521615C012940D102212522A154C7
:10179000E0632068006801218843216808603B00FD
:1017A000029A0199200000F047F9206B002806D02A
:1017B000206800680E210143206801600BE020686A
:1017C00000680421884321680860206800680A21B5
:1017D000014320680160606C0068C00306D5606C3E
:1017E0000068802149000143606C0160206D002881
:1017F00006D0206D0068802149000143206D016002
:101800002068006805432068056004E08021E163EA
:10181000242160542E003000C0B2FEBD70B501001E
:10182000002901D101203BE02520085C022806D0D8
:101830000420C863002024228854012030E0086876
:1018400000680E2290430A6810603D484A6C126896
:1018500002404B6C1A600A68126801239A430B68B5
:101860001A600123354A146840254D5D1C262E4020
:101870001D00B54025431560CA6C8C6C62600A6D12
:10188000002A07D00A6D126810400A6D1060886D3A
:101890004A6D506025200B540020242288540020DB
:1018A00070BD0000F8FFFDBFF8B504000020050082
:1018B0002521615C022904D00420E0630120050099
:1018C00036E0216809680E22914322681160216880
:1018D000096801229143226811601949626C1268FB
:1018E0000A40636C1A600126144A13689C46402320
:1018F000E75C1C233B4037009F4063461F43176053
:10190000E26CA36C5A60226D002A07D0226D126827
:101910001140226D1160A16D626D516025216654E8
:1019200024216054A06B002802D02000A16B8847BE
:101930002800C0B2F2BD00000F80FFFF040002408B
:10194000FFFEFFFFF8B504004E48056820680668F2
:101950001C200421226C02400B0093402B40002BE2
:1019600019D00E4217D022681268920605D4226858
:10197000126804239A4323681A604F4A1368276C3D
:101980003840814019431160206B002851D020005D
:10199000216B88474DE00221226C02400B009340EE
:1019A0002B40002B1FD00E421DD0226812689206D9
:1019B00008D4226812680A239A4323681A60012215
:1019C0002523E2543C4A1368276C38408140194370
:1019D0001160002024216054E06A002829D02000F2
:1019E000E16A884725E00821226C02400B00934001
:1019F0002B40002B1DD0314000291AD021680968E6
:101A00000E2291432268116001212B4A1368276C32
:101A100038400F0087401F431760E16325202154A1
:101A2000002024216054606B002802D02000616BEC
:101A30008847F1BDC06B7047F0B5C46C856C6C60B5
:101A4000046D002C02D0846D456D6C601A4C2668C4
:101A50000127BC464025475D1C253D406746AF40F9
:101A600037432760046863608468102C04D10468DD
:101A7000A2600468E16003E00468A1600468E260B9
:101A8000F0BD00000000024010B50400206C80088A
:101A9000042148431249401860642078C0B20838D5
:101AA000142101F07AFD0F49A16401210200D20640
:101AB000D20E9140E16410BD040002400179890614
:101AC000890E04224A43084BD2180265074A426530
:101AD00001220B005B1E9B079B0F9A40826570479B
:101AE0000008024080080240FC0802404009024011
:101AF0007047F1B40168421841684808131800980B
:101B00008068C9071ED5494640181BE01778521C4B
:101B10000770401C761EF9D1002C13D01678521C89
:101B200089080D40032D01D11578521C2902711826
:101B30004D424119A41C05D00D78491C0570401C6C
:101B4000641EF9D19A420FD01178521C0325032646
:101B50000E4002D11678F61C521C0C090F2CD9D15C
:101B600014780F34521CD5E700980C30F2BC704743
:101B700010B504001848A04202D0B648A04202D1D5
:101B8000200002F06FFB10BD10B504001248A04207
:101B900002D0B048A04202D1200002F0B7FA10BD36
:101BA00010B504000C48A04202D1200002F0E2FB74
:101BB000A848A04202D1200002F0DCFB10BD10B505
:101BC0000400A548844202D0A448844202D12000E7
:101BD00002F045FA10BD0000C00C0020FFB587B030
:101BE000109D02263400002D02D1C04804002DE1D2
:101BF000694620200856012809D10998002803D0F9
:101C00000AA80078002802D1B84804001EE1FE208E
:101C100000026946898B814200DA17E16946898BA7
:101C2000C24A914200DB11E16946898B81423AD177
:101C3000694620200856002805D002282CD015D34C
:101C400003282DD002E1002002F069FF6946C88117
:101C5000029603AEB61C2F00029A3100380003F042
:101C600009F80420287400200400EFE00027380061
:101C70006946888104960998029003AE049A0299F5
:101C8000300002F0F7FF04202874684681890020A4
:101C900002F0BEFF3C00D9E0340004202874D5E0F7
:101CA00000200400D2E06846808BB049884263D1AE
:101CB000694620200856002805D0022836D01ED3B9
:101CC000032854D0C2E0012002F029FF6946C880F1
:101CD0006846C0888549884203D1A548008869467E
:101CE000C880029601AEB61C2F00029A310038005F
:101CF00002F0C0FF0420287400200400A6E00027A2
:101D000038006946488105960998049002AEB61CD1
:101D1000059A0499300002F0ADFF68464189012020
:101D200002F076FF042129743C008FE004200100BA
:101D300029740AA90978022901DA040016E00027AB
:101D400038006946888005960998049001AE059A86
:101D50000499300002F08EFF684680880A2805DB6F
:101D600068468088B349884200DA3C006EE004206F
:101D700028740020040069E06846808BAE498842E0
:101D800064D1694620200856002805D0022839D0A1
:101D90001DD3032856D059E0022002F0C0FE694648
:101DA0004880684640885149884202D101206946EE
:101DB0004880049600AEB61C2F00049A310038000B
:101DC00002F058FF04202874002004003EE00027A1
:101DD00038006946088105960998049002AE059A74
:101DE0000499300002F046FF0420287468460189F7
:101DF000022002F00DFF002802D40100BC4A11703D
:101E00003C0023E00420010029740AA90978022972
:101E100001DA040015E000273800694608800596BD
:101E2000099804906E46059A0499300002F022FF4A
:101E300068460088002804D068460088642800DAD4
:101E40003C0003E00420287400200400200080B23D
:101E50000BB0F0BD500D0020FC0E0020480F0020FC
:101E6000F7B507000D0002980221484301900020B9
:101E700000902C00009A0199200002F009FF8026B2
:101E8000B6012B0005223100380003F0F9FF0400F1
:101E9000002C0AD12B0005223100380003F0F0FF9E
:101EA0000400012CF4D1002001E00020C043FEBD5D
:101EB000F8B507000D000D482880FE2636022B00DD
:101EC00001223100380003F0DBFF0400002C0AD1AE
:101ED0002B0001223100380003F0D2FF0400012C56
:101EE000F4D1002001E00020C043F2BDFFFF00005C
:101EF0007CB506007F48694608807F4D6B4601220D
:101F00002900300003F0ECFF0400002C0AD16B46DE
:101F100001222900300003F0E3FF0400012CF4D17A
:101F2000002001E00020C04376BD000051FE00000B
:101F30007CB506007148694608808825AD016B466E
:101F400001222900300003F0CBFF0400002C0AD14D
:101F50006B4601222900300003F0C2FF0400012C6F
:101F6000F4D1002001E00020C04376BD01FE000056
:101F70003A2C0008FFB585B0040000200090002C2A
:101F800002D10020C04353E06946098B172902DAC9
:101F90000020C0434CE06946098B04910390250062
:101FA000039A0499280002F073FE07252E0002967A
:101FB000534801902700029A0199380002F05AFE16
:101FC000002002F0ACFD69460880684600884D4953
:101FD000884208D02E0001964B4D2700019A290017
:101FE000380002F047FE0C2707980190A5193A0027
:101FF0000199280002F03EFE0C3635006846008C40
:1020000080B2000A60556D1C6846008C60556D1CDE
:102010002800010089B2200002F0A1FE01000800A2
:1020200080B2000A60556D1C28000A002254401C32
:1020300009B0F0BD214E000002FE0000F3B581B0F2
:10204000040017000025002C02D10020C0434EE000
:102050003B009BB2029A8021490092204000201848
:10206000FFF788FF0600002E00D5FEE7300089212B
:10207000890060522548201800902548231889209F
:102080008000225A922040002118606803F080FBF3
:102090000500002D2AD11D48201800901C48231847
:1020A00089208000225A922040002118606803F0A5
:1020B0006FFB0500012D16D11448205A062811DBAC
:1020C0001448215C606803F09BFE1248205C4021AC
:1020D0000143104821540F48215C606803F09CFEC6
:1020E000002004E0FEE7022DD3D1FEE70020FEBD74
:1020F00094020020C25C000019500000031400008C
:10210000888200086B6F00009082000826030000A0
:10211000260200002B02000000B50200002A02D1B6
:102120000020C04349E00888107010781074488877
:10213000002808D002280ED009D3042813D00ED3CB
:10214000052814D017E0E1204002506016E09620E8
:102150008001506012E09620C00150600EE0962091
:10216000000250600AE0E1200002506006E0E12039
:102170004002506002E0E12040025060888801285F
:1021800002D0022803D005E04E20107204E0452062
:10219000107201E04E201072C888002802D0012879
:1021A00003D005E00120507204E00220507201E0EB
:1021B000012050720889D060002000BDF0B591B0B8
:1021C00000260896802040016946888306961021E3
:1021D00032000AAC200002F05BFDA927FF0009963F
:1021E0009A4C2500099A3900280002F051FD9848C0
:1021F0006060984820600A20CE218900605000204D
:10220000059095480490002003900120029008203A
:1022100001904E200090E1235B02904A9049606853
:1022200003F074FE0121606803F0EAFD812160681B
:1022300003F0F2FDFA25AD002900606803F0FCFD13
:102240000A21606803F010FE2900606803F000FEB8
:102250000C210EA803F0A0FE0500002D28D108983F
:10226000002811D17F4803F0D9FE6846828B0EA961
:102270002000FFF7E3FE0500002DF0D4032003F05B
:10228000D9FE01200890EAE7002D05D501F083FC76
:10229000322003F0CFFEF7E7724803F0BFFE0020C4
:1022A00002F03DFC0990704F0998B84203D11EE03E
:1022B00001F071FCFEE76846068069466068FFF73A
:1022C000F7FD0500002D0ED468460088B8420AD1FB
:1022D00068460188002002F09BFC0500002D02D416
:1022E00001F059FCFEE70320CE2189006050032055
:1022F00003F0A0FE5B4E300003F090FE6068FFF735
:1023000017FE0690069800280CD5032003F092FED5
:102310006068FFF70DFE06900698002802D501F0D0
:102320003AFCFEE7032003F085FE300003F076FE62
:1023300008220AA96068FFF793FD0700002F0DD55A
:10234000032003F077FE08220AA96068FFF788FDE2
:102350000700002F02D501F01EFCFEE7032003F06A
:1023600069FE300003F05AFE6068FFF7C1FD05000A
:10237000002D0BD5032003F05DFE6068FFF7B8FD6C
:102380000500002DF4D501F006FCFEE70AA92000A7
:102390000C30FFF7C1FE0600002E02D501F0FBFB5A
:1023A000FEE7032003F046FE0020059086480490D7
:1023B00002200390607D029008200190207D009013
:1023C0002369824AB549206803F0A0FD217B20687B
:1023D00003F016FD217F206803F01EFDFA256D0035
:1023E0002900206803F028FD0A21206803F03CFD45
:1023F0002900206803F02CFD02230822A849206848
:1024000002F0BFFC0720607211B0F0BD30B50028AB
:102410001AD093229200845C002293239B00C35C19
:102420000D00EDB2002D01D15B065B0E0C00E4B295
:10243000012C02D11C008023234340245C409325BF
:10244000AD004355974D445530BD00007402002047
:10245000400A0020C0070020480F00200044004030
:10246000500D0020101000206B6F000001000022B2
:102470000B00DBB29B091800C007C00FC0B2704749
:10248000FFB584B000200100020003000290049C0C
:10249000002C03D0059C24B2002C00D191E0069CB6
:1024A000002C03D0079C24B2002C00D189E0079CAB
:1024B00024B2062C00DA84E0049C64786D462C700B
:1024C0006C462478032C03D069460978042978D116
:1024D00004998978802464006143049CE478091994
:1024E0006C46618069464988049C247980256D008A
:1024F00065434919049C64790919491E6C46A180F9
:1025000069496A4C2488022565434C19A41E248815
:102510006D466D88AC4254D36A4692880B889A42C5
:102520004FD3624A128890424BDA022242438A5ABF
:102530006B465B889A4242D36A46928802234343A1
:10254000CB5A9A423BD3022242438A5A6B465B885B
:10255000D21A02235A43D21C069B1400A4B21B5D5C
:10256000802464006343069C1500ADB2641964784E
:102570001B191C004E4D24B2AC4202D14D4C0294AA
:1025800002E01C0024B2029403AC4B4D2E6826607E
:1025900002AC1500ADB21600B6B2361DB5420EDA69
:1025A000079E36B2B61EB54207DA03AE1700BFB2B9
:1025B000EF1BF65DA65D069F7E556D1CEBE7401C8C
:1025C000AFE708B0F0BD0000FC0E0020003801406D
:1025D000FEB500240094394D39482E18307805286E
:1025E00002D03078062800D157E02F002137912003
:1025F00040002A183900286803F078F90090009804
:1026000000284AD00098012837D1A869002804D0B2
:1026100001F068F8CF21890068502A4C2088029088
:10262000019729482F18029A0199380002F022FBDD
:102630002088264968522120285C002802D10320E6
:1026400030702AE0286893218900405C2968154A87
:10265000895C88420ED02868A2214900405C296824
:10266000104A895C884202D10420307015E00120B4
:10267000307012E0012030700FE00098042802D181
:1026800000BF347009E00098032802D102203070A6
:1026900003E0286803F074FC3470F7BDC00C002020
:1026A000000400504D0200007C820008D62D000876
:1026B000FF7F0000FFFFFF7FB88200087402002048
:1026C0004103000096030020420300004204000082
:1026D000F8B584B00020C0430190974C607A072879
:1026E0000CD0964820180178012902D106210170EA
:1026F00004E00178042901D107210170607A0128E2
:1027000000D1BBE000D280E2032800D1F6E100D284
:1027100000E1052800D12CE200D2FBE1072802D01D
:1027200000D23AE271E28548205C00280CD00128F2
:102730000CD0022829D003282CD0042849D0062800
:1027400004D0072845D062E000BF60E0D64E35884F
:10275000D648201800909220400027182A0000999F
:10276000380002F087FA3088892189006052002001
:102770000100D0229200A154CB2189006054052091
:102780006E4960540120607241E00120D02189002F
:1027900060543CE0C44E3588C44820180090922014
:1027A000400027182A000099380002F063FA3088A8
:1027B00089218900605201200100D0229200A15499
:1027C0000100CB229200A15405215C4AA154607201
:1027D0001DE0B54E3588B548201800909220400085
:1027E00027182A000099380002F044FA308889211D
:1027F0008900605200200100D0229200A154CB2118
:102800008900605405204D49605406206072A84834
:102810000068002831D000F065FFCA2189006158A6
:10282000401A652829D3607A072826D10125280077
:10283000CB21890060548920800020180821018064
:10284000D0218900615C00290BD000880090C24E25
:10285000922040002718009A3100380002F00AFA4E
:102860000AE000880090BD4E922040002718009A90
:102870003100380002F0FEF96572C6E103F02FFC6A
:1028800006003000C0B2FF2801D0B5480670B44839
:1028900001786068FFF7BAFD00F024FFB1490968CC
:1028A000401AB1490968884200D2AEE100F01AFF2F
:1028B000CA218900605080204000029000250095C8
:1028C000D3482718009A0299380002F0E1F9D1485C
:1028D0002552922040002018616893229200895C62
:1028E00001708921890065182988891E89B202F042
:1028F00036FA010089B2090A2A88A21891235B00DE
:10290000D15401002A88A218FF232433D154022174
:1029100061727AE1C04E3078002811D089208000A1
:10292000225A922040002118606803F0C2F80190FA
:1029300046208D49086015E0740200204103000024
:10294000B44820180090B248231889208000225AE9
:10295000922040002118606802F01AFF01900A20BE
:10296000814908600198002800D1C6E000F0BAFE55
:102970007C4908600198012800D09BE0A4482518F4
:102980002878FFF773FD20216054A248205A0628BA
:1029900007DA8A208000205CAA2802D101F0FBF827
:1029A000FEE7CB2080002018017800293ED199480D
:1029B000205A03001BB22A0089208000205A0100FF
:1029C00009B2922040002018FFF75AFD9148205A82
:1029D00002900095914F3D00029A0099280002F064
:1029E00049F98F4825188B48205A28802068932160
:1029F0008900405C38702888811E89B2380002F056
:102A0000AEF9010089B2090A2A88A218854BD1546F
:102A100001002A88A218844BD154A169002902D050
:102A20000321617231E0042161722EE07F49611857
:102A30000A78052A01D100220A7000210A000270DA
:102A40002020205C002802D10720607201E00520D0
:102A500060727048205A062809DA3078002806D1BA
:102A6000CC20800020180168491C016002E0CC20C5
:102A700080002150CE2080002058CC218900615850
:102A8000884202D201F087F8FEE7684820180178F2
:102A9000022901D100210170002001003170CD21F7
:102AA0008900605028E000BFB60600204203000005
:102AB0001C0200205D4820180178052901D1002161
:102AC0000170CD20800020180168491C0160CE21D2
:102AD000890061580068814202D201F05CF8FEE78B
:102AE000606802F0D9FF022003F0A4FA0020CB2195
:102AF000890060540720607287E086E000F0F2FDF4
:102B0000A169CF229200A258801A814201D20420EA
:102B100060727AE04248225A45482118206802F043
:102B2000C8FF01900198002822D040482018017861
:102B3000052901D1002101700198022805D16068A2
:102B400003F01EFA206803F01BFA2020205C002806
:102B50000CD1072060720BE0A08200089882000868
:102B60003B10002030100020200200200520607261
:102B70004BE00020202160546068FFF7B9F90500A0
:102B8000002D04D56068FFF7B3F90500F8E71920B8
:102B900003F050FA00F0FFFFFEE70A2003F04AFAC4
:102BA000802676000396002502951C4F0097029A16
:102BB0000399009802F06CF80098280018496052B8
:102BC0001C48009000233A0089208000215A92205E
:102BD0004000201803F034F801900198012805DB2B
:102BE00001980F496052042060720DE000962E009B
:102BF0002700213732000099380002F049F891206F
:102C00004000255207206072FFE705B0F0BD00BF0D
:102C10002602000026030000B4050020B8060020AC
:102C2000440500004204000043040000410300008A
:102C300044040000DD1B00087047460010B5010089
:102C40008020085C012801D1022019E001208022A7
:102C50008854242084228850086800680A68126812
:102C600001239A430B681A60314A024000204866EB
:102C70000B681A60202384240B518023C854002041
:102C800010BD70B505000C008020285C012801D122
:102C9000022020E0012080216854242084216850F3
:102CA0002868066828680068012188432968086048
:102CB00028688068C000C008204329688860280010
:102CC00000F03AF82868066020208421685000202F
:102CD00080216854002070BD70B505000C00802074
:102CE000285C012801D1022020E0012080216854C5
:102CF000242084216850286806682868006801211B
:102D0000884329680860286880680A49014021438F
:102D100028688160280000F00FF8286806602020ED
:102D200084216850002080216854002070BD00007C
:102D3000FFFFFFDFFFFFFFF1F0B585B0040003A840
:102D400021490CC90CC00839083801A81F490CC911
:102D50000CC008390838606E002805D101206A21AE
:102D60006052682160522CE0082001006A46917090
:102D70006946487020688068400E4007400F6946E9
:102D8000087020688068400F050001AE03AF6846F8
:102D900040782900C9B2795C48432900C9B2715C06
:102DA00000F0F8FB6A21605268468078694609782D
:102DB000795C484369460978715C00F0EBFB682157
:102DC000605205B0F0BD0000A8820008B082000883
:102DD000704770477047050002480168E020C00155
:102DE0000840704708100240F8B584B00400002C79
:102DF00001D1012053E201262068304000285CD038
:102E0000B3480068382101400291B2480068800749
:102E1000800F01900298102802D10198032802D057
:102E20000298082808D1AC480068800345D560683E
:102E3000002842D1012032E28020400261688142B4
:102E400004D1A5490A681043086017E06168A02210
:102E5000D202914209D1A0490A688023DB021343C0
:102E60000B600A681043086008E09B480168B04A9C
:102E70000A4002600168AF4A0A40026060680028A8
:102E80000DD000F02FFC050093480068800314D497
:102E900000F028FC401B6528F6D30320FFE100F07A
:102EA00021FC05008C480068800306D500F01AFC60
:102EB000401B6528F6D30320F1E12078800776D502
:102EC00083480068382101400291824800688007E9
:102ED000800F01900298102802D10198022802D098
:102EE000029800282CD17C490868400504D5E06888
:102EF000002801D10120D2E1BA480368BA4A1A4039
:102F000063691B02134303600298002810D108680C
:102F1000B64A0240206910430860B5480968C90AEA
:102F20004A07520F3100914000F037FBBF4908605B
:102F3000BF48006803F010F9002838D00120AEE146
:102F4000E068002821D0644F3868A8490140206912
:102F5000084338603868802149000143396000F037
:102F6000C1FB05003868400506D400F0BBFB401BE0
:102F70000328F7D3032092E19A4801689A4A0A404D
:102F8000616909021143016011E0534F3868A94992
:102F90000140396000F0A6FB05003868400506D501
:102FA00000F0A0FB401B0328F7D3032077E1207833
:102FB000000734D54648006838210140182908D157
:102FC000B848006880072AD5A069002827D10120C9
:102FD00065E1A069002810D0B24F386830433860EE
:102FE00000F080FB05003868800718D400F07AFBF9
:102FF000401B0328F7D3032051E1AA4F3868012171
:103000008843386000F06EFB05003868800706D5FD
:1030100000F068FB401B0328F7D303203FE104279F
:1030200020683840002800D18FE0002069460870F1
:10303000274800683821014020290AD19A480068B1
:10304000800700D481E0A068002800D07DE0012046
:1030500025E18020400595490968014000290AD1F1
:1030600092490A6802430A6009680840039003987D
:103070003000694608708E480068C00514D48C483A
:1030800000688021490001438948016000F02AFB63
:10309000050087480068C00506D400F023FB401BEC
:1030A0000328F6D30320FAE0A068012804D17E4863
:1030B00001680E4306601AE0A06805280ED17A4820
:1030C00001680F43076001680E4306600FE000BF10
:1030D000081002400C1002400010024072480168C3
:1030E0000122914301600168042291430160A068BC
:1030F00000280ED000F0F6FA05006B480068800743
:103100001AD400F0EFFA401B6A498842F5D3032035
:10311000C5E000F0E7FA05006348006880070BD5BA
:1031200000F0E0FA401B63498842F5D30320B6E083
:10313000FFFFFEFFFFFFFBFF68460078012804D178
:103140005A4801685C4A0A400260E069002800D1E0
:10315000A4E05A4800683821014010296CD0E06989
:10316000022847D1564F386856490140396000F06F
:10317000B9FA00908026B60438683040002807D09D
:1031800000F0B0FA0099401A0328F3D3032086E038
:10319000AD480168AB4A0A40216A1143626A0A439A
:1031A000A16A09021143E26A0A43216B1143626B6F
:1031B0000A4302603968802252040A433A60016877
:1031C000802252050A43026000F08CFA050038683C
:1031D0003040002862D100F085FA401B0328F6D366
:1031E00003205CE004100240FF80FFFFFFC7FFFFE9
:1031F0000024F400324E3068324901403160924878
:1032000001680322914301600168904A0A4002600C
:1032100000F068FA0500306880013FD500F062FADE
:10322000401B0328F7D3032039E000BF2802002009
:1032300024020020FFFEFFFFE069012801D10120E8
:103240002DE081480068019001988007800F216A75
:10325000884221D1019870210140606A81421BD1CE
:103260000198FE21C9010140A06A0002814213D1E8
:103270000198F82189030140E06A81420CD101984C
:10328000E02109050140206B814205D10198400FE2
:103290004007616B884201D0012000E0002005B0AA
:1032A000F0BD0000601002405C1002403C10024083
:1032B0000070004089130000FFFFFFEF081002407C
:1032C00000100240FFFFFFFEF3B581B00400002CA8
:1032D00001D10120B5E00725944E306828400299BD
:1032E000884216D230680721884302990143316031
:1032F00000F0F8F90090306828400299884208D020
:1033000000F0F0F90099401A89498842F3D303206C
:1033100097E002202168014000290FD02178490759
:1033200005D584490A68E023DB0113430B6081491A
:103330000A68814B1340A2681A430A602178C907C2
:1033400045D56168012905D17C480068800324D4F3
:10335000012076E06168022905D178480068800183
:103360001BD401206DE06168002905D17348006815
:10337000400512D4012064E06168032906D1704938
:1033800009680840002808D101205AE06D49096801
:103390000840002801D1012053E0664F386807211A
:1033A000884361680143396000F09CF900903868F7
:1033B000382101406068C000814208D000F092F9D5
:1033C0000099401A5A498842F1D3032039E0029803
:1033D00031682940884216D2306807218843029913
:1033E0000143316000F07EF9009030682840029976
:1033F000884208D000F076F90099401A4C4988427A
:10340000F3D303201DE02078400706D54948016822
:103410004D4A0A40E1681143016000F019F84B4938
:10342000444A1268120A1207120F04235A43895C95
:10343000C906C90EC840464908604648006802F0FF
:103440008BFEFEBD8C80C1110C100240FFFFFEEE12
:10345000FCB5382037490A680240002A0CD1012007
:1034600036490968C90A4907490F884006003A48A1
:10347000310000F092F844E00A680240082A01D1C5
:1034800036483EE00A680240102A2BD1344F386893
:103490008007800F0190386800094007400F401CEA
:1034A0000500019803280AD12C48290000F075F87E
:1034B0003968090A4906490E4843040009E02648CC
:1034C000290000F06AF83968090A4906490E48439C
:1034D00004003868400F401C00902000009900F064
:1034E0005CF80EE00A680240202A02D18020000227
:1034F00007E009680840182802D1FA20C00100E05E
:103500000020F6BD12480068704710B5FFF7FAFFBB
:103510000400FFF761FC1349000B04225043085CD0
:10352000C006C00EC440200010BD000000200240B4
:103530008913000008100240FFF0FFFF0010024056
:10354000601002405C100240FF8FFFFFF88000080F
:1035500028020020240200200024F40000127A0037
:103560000C100240BC810008F446002804D44942F3
:1035700000F013F8404260474042002905D45FD074
:1035800000F00BF8404249426047494200F005F81C
:103590004942604703460B43E6D40022030A8B42AC
:1035A0000BD203098B4219D243088B422ED2411A07
:1035B00000D20146524110467047FF2209023FD017
:1035C00012068B4205D3121209028B4201D312124A
:1035D000090203098B4219D300E0090AC3098B428F
:1035E00001D3CB01C01A524183098B4201D38B0115
:1035F000C01A524143098B4201D34B01C01A5241B8
:1036000003098B4201D30B01C01A5241C3088B42FC
:1036100001D3CB00C01A524183088B4201D38B00E7
:10362000C01A524143088B4201D34B00C01A524189
:10363000884200D3401A5241CFD20146104670470B
:1036400008B502F0BBFD08BD30B4434351435D18DB
:10365000010C0C00130C5C432D1980B2434392B251
:1036600051430024C918644124040B04090C0919AE
:103670005043C018694130BC7047124224D099426F
:1036800028D970B500251B4202D00C00002109E0AA
:103690000024012649186441944200D3A41A7641BB
:1036A000F8D33100012601E0764109D200186441C7
:1036B0006D41A41A9D41F7D2A4185D41B619F5D306
:1036C000300022002B0070BD1B42D8D108B502F09B
:1036D00077FD08BD01D19042D3D202000B0000213A
:1036E0000020704701480068704700BF3410002078
:1036F000704710B50400080011000200200001F01E
:10370000C7FA200010BDFEE7FCB5020000240868DF
:10371000E040002800D1E4E0012508682E00A64022
:10372000064001960198002800D1D8E04868012899
:1037300008D04868022805D04868112802D0486897
:1037400012281CD196680320844627000220474394
:103750006046B8408643CF68BC46200002277843C5
:10376000674687403743976056682800A0408643E5
:10377000486800092840A040304303005360D768E0
:103780000326BC462700022047433000B840674666
:103790008743009788688446270002204743604695
:1037A000B840009F384300900098D06048680228D5
:1037B00002D04868122820D1E0080423584310188A
:1037C000076A072000970F239C4627000740042321
:1037D0005F436346BB40009F9F43BC460B69270085
:1037E000384004277843834067463B430093E00812
:1037F000042358431018009B03621768230002201B
:1038000043433000984087434B6833409C46200038
:1038100002235843634683403B4313604868C0001B
:103820005DD586488446A708042047436046C059B2
:1038300000900F27BC462700300038400827784307
:10384000674687400098B843A027FF05BA4201D1D8
:1038500000250DE07A4B9A420AD07A4B9A4201D168
:10386000022505E0784B9A4201D1350000E005259C
:1038700023001E4008235E43B54005436F48A3085C
:1038800004267343C550714B1868019EB0434E68BF
:10389000F60302D505000198284318606C4D2B688B
:1038A000019EB3434E68B60302D51800019B034343
:1038B0002B60684D2868019EB0434E68F60202D521
:1038C0000300019818432860634D2B68019EB343A1
:1038D0004E68B60202D51800019B03432B60641C9E
:1038E00015E7F3BDF2B582B0010000220298D04086
:1038F000002800D193E0012302981C00944004406A
:1039000000940098002800D187E04C4894080425D2
:103910006C43005903240F25160027003740082662
:1039200077432E00BE4006400196A020C00581428C
:1039300001D100260FE04248814201D11E000AE079
:103940004048814201D1022605E03F48814201D131
:10395000260000E005260198844617002000384024
:103960000827784386406046B04228D13748066829
:10397000009FBE43066036480668009FBE4306604F
:1039800034480668009FBE43066033480668009FBF
:10399000BE430660160020003040082670432E000B
:1039A00086400196254E90080427784337580198A1
:1039B0008743B4469008042670436646375008682B
:1039C0001700022677432600BE4006430E60D0084B
:1039D000042670430E18D008042778430818006A9C
:1039E000AC4615006F077F0F04256F436546BD4049
:1039F000A84330628D681600022046432000B04084
:103A000085438D604868934098434860C8681300B8
:103A100002256B439C40A043C860521C66E7F7BD7B
:103A200000B51300DBB2002B03D00B009BB2836107
:103A300002E00B009BB2836200BD000060180240F0
:103A40000004005000080050000C00508018024094
:103A500084180240001802400418024000B501001A
:103A600049B2002905D40121C206D20E91404F4A25
:103A7000116000BD00B5010049B2002909D401213F
:103A8000C206D20E91404A4A1160BFF34F8FBFF376
:103A90006F8F00BDF0B5020052B2002A1CD4032281
:103AA000444B040064B2A40804256C431C59FF2550
:103AB0001600064008277E43B540AC438D01EDB2A9
:103AC00002400826724395402543020052B29208F4
:103AD000042462439D5022E00F24374A032305004B
:103AE0006DB22540083DAD0804267543060076B248
:103AF0003440083CA408042674431659FF27BC46EA
:103B00001C00044008277C436746A740BE438C0145
:103B1000E4B2034008277B439C4034435451F0BD3A
:103B200000B5BFF34F8F254825490860BFF34F8F7D
:103B300000BFFDE710B50400601E802149048842E3
:103B400001D301200EE0601E1E4908600321002001
:103B5000C043FFF79FFF00201B49086007201B4957
:103B60000860002010BD70B505000C001600210093
:103B7000280040B2FFF78EFF70BD10B50400200092
:103B800040B2FFF76BFF10BD10B50400200040B23B
:103B9000FFF770FF10BD80B5FFF7C2FF01BD10B584
:103BA00004002000FFF7C6FF10BD000000E100E0A8
:103BB00080E100E000E400E01CED00E00400FA0514
:103BC0000CED00E014E000E018E000E010E000E0A0
:103BD00070B502F0F7FAC348006802F02BFA00F063
:103BE0003DF800F0C1F900F0DBF800F012F900F048
:103BF00048F900F079F900F097F900F0C1F800F009
:103C000080F8C64C200002F0FDFAD54802F08EFB89
:103C1000C34802F08BFBC34D280002F0FFF9FEF70A
:103C2000CDFA280002F0FAF902F02EFAFFF75AFD59
:103C30000600FFF757FDCB490968801B814205D27A
:103C4000200002F0B7FFFFF74DFD0600FEF7C0FCB5
:103C5000FEF73EFD280002F0E1F9EAE738B59CB036
:103C600038210024220004AD280001F011F81021B1
:103C700022006D46280001F00BF82821220012AD29
:103C8000280001F005F88020800003F0A5FA0A2042
:103C90000490802040000790089440200990012063
:103CA0000A9002250B950C950D9408200E9080200B
:103CB00080020F9080208004109080208005119059
:103CC00004A8FFF791F8002801D000F0A5F907201B
:103CD000009001950294039402216846FFF7F4FADC
:103CE000002801D000F098F9BD481290139419945F
:103CF00012A803F09DFA002801D000F08DF91DB044
:103D000030BD3EB50C21002422006D46280000F095
:103D1000BFFF824DB3482860802000066860AC6019
:103D2000EC602C6104206861200028762000687611
:103D30002000A8760120E8612000202168546C62F0
:103D4000AC6220002C2168542C6303206863A863B4
:103D500020003C216854EC64280002F0C5FD0028D6
:103D600001D000F059F9A0480090019402946946EE
:103D7000280003F03FF8002801D000F04DF937BDCE
:103D800080B5684899490160002141609849C16047
:103D9000816002F015F9002801D000F03DF901BD65
:103DA00030B587B010210024220003AD280000F0B8
:103DB0006FFF0C2122006D46280000F069FF684D5E
:103DC0008020C0052860FA2000026860AC600A20EC
:103DD000E8602C61AC61280002F076FA002801D07E
:103DE00000F01AF980204001039003A9280002F096
:103DF000E5FB002801D000F00FF900940294694619
:103E0000280003F025FB002801D000F005F907B0D9
:103E100030BD30B587B010210024220003AD28004A
:103E200000F036FF0C2122006D46280000F030FF24
:103E30003B4D70482860FA2000026860AC600120A9
:103E4000E8602C61AC61280002F03EFA002801D045
:103E500000F0E2F880204001039003A9280002F05E
:103E6000ADFB002801D000F0D7F800940294694619
:103E7000280003F0EDFA002801D000F0CDF807B0DB
:103E800030BD10B55C4C5D482060E12040026060B0
:103E90000020A060E06020610C216161A061E06110
:103EA00020626062A0622000FCF70AF9002801D0BD
:103EB00000F0B2F800212000FEF7E3FE002801D058
:103EC00000F0AAF800212000FEF706FF002801D02C
:103ED00000F0A2F82000FEF7B1FE002801D000F0AB
:103EE0009BF810BD0400002080B54548454901609D
:103EF000E1214902416000218160C16001610C2221
:103F000042618161C161016241628162FCF7D8F85E
:103F1000002801D000F080F801BD0000E00D002075
:103F2000480F00201010002080B5012036490A6893
:103F300002430A60096808400090009800220021AE
:103F40000A20FFF710FE0A20FFF717FE00220021CB
:103F50000B20FFF708FE0B20FFF70FFE01BD00004E
:103F6000FC0E002000000020F8B586B014210025CA
:103F70002A0001AC200000F08BFE012423480168D8
:103F800021430160016821400091009902210268EB
:103F90000A43026000680140009100981C4F002213
:103FA0003900A020C005FFF73BFD842676000022E3
:103FB00031001848FFF734FD0197029403950495EA
:103FC00001A9A020C005FFF79FFB0196029403956D
:103FD000049501A90F48FFF797FB07B0F0BD00005B
:103FE000014000000024014000010020003000409A
:103FF000FF0F000000040040C00C0020003801400A
:10400000500D00200044004038100240341002409F
:1040100002080000000400507047FEE700B50100F0
:104020008848814201DB884818E09620C00181421F
:1040300001D1864812E096208001814201D1844856
:104040000CE096200001814201D1824806E09620D2
:104050004000814201D1804800E07B4800BD70B53E
:10406000040000207D490A689268944201D10D68DD
:104070001CE07B490A689268944201D10D6815E002
:10408000B9490A689268944201D10D680EE0B749B7
:104090000A689268944201D10D6807E0B4490A6841
:1040A0009268944201D10D6800E02EE06E68287D90
:1040B000022814D1200002F06FF93000FCF77EF9DD
:1040C0003068806908210143306881613068806907
:1040D00010210143306881610120287515E020001E
:1040E00002F05AF90120C043216808613000FCF752
:1040F00065F9306880690821014330688161306862
:104100008069102101433068816170BDF8B50500F8
:1041100000200100514A13685B689D4201D1146878
:104120001CE04F4A13685B689D4201D1146815E09A
:104130008D4A13685B689D4201D114680EE08B4A7A
:1041400013685B689D4201D1146807E0884A1368D0
:104150005B689D4201D1146800E071E0A1680091A4
:10416000217D022941D10099096848620120C0439C
:10417000009909680861912080002058002807D123
:104180006868FFF74BFF0099C860009802F0CEF80E
:10419000912080002058401C91218900605091207E
:1041A00080002058FF280BD8012291208000205841
:1041B0002018A221490041182800FBF7E7FF3FE043
:1041C000009802F0E9F82800FCF7F8F82868806900
:1041D0000821014328688161286880691021014312
:1041E00028688161032020752AE01027286807626B
:1041F00002202968086208262868066204202968C7
:1042000008620120296808622868806930432968AB
:1042100088612800FCF7D2F8A06802F0BDF8012000
:10422000C0430099096808612868806906432868C6
:1042300086612868806907432868876103202075A4
:10424000F1BD0000014B000010270000043D0000FC
:10425000FE790000A63902004ECD110014000020A6
:1042600018000020F8B586B0060000252800694631
:1042700008702C00A948016849688E4202D1006884
:10428000040022E0A648016849688E4202D1006815
:1042900004001AE03448016849688E4202D100687F
:1042A000040012E03148016849688E4202D100687A
:1042B00004000AE02E48016849688E4202D1006875
:1042C000040002E0FF206946087068460078FF2875
:1042D00048D0002C46D0934F606AB84205D1306870
:1042E000006808218843316808602078002827D1B9
:1042F000E069002824D00022218CE069FFF790FBC0
:10430000A069B8420BD1208C019002950220039045
:104310000320049001A9E069FFF7F6F910E0A06915
:10432000022805D10022218CE069FFF779FB07E024
:10433000A069012804D10122218CE069FFF770FBFC
:10434000012020759F208000205C022804D09F203F
:104350008000205C032805D19F208000215C200084
:1043600000F095FF07B0F0BD2010002024100020C1
:1043700028100020F0B587B00400002069460870BE
:1043800000256648016849688C4202D10068050032
:1043900022E06348016849688C4202D10068050048
:1043A0001AE0BB48016849688C4202D100680500E8
:1043B00012E0B848016849688C4202D100680500E3
:1043C0000AE05948016849688C4202D1006805003A
:1043D00002E0FF206946087068460078FF2800D197
:1043E00099E0002D00D196E0002C00D193E003204D
:1043F000010029755C21615A5E22A25A891A912214
:104400009200A95047496A6A8A4205D12268126817
:1044100008239A4323681A602A78022A1FD1AA69BE
:104420008A420BD1298C029100210391022104912F
:10443000059002A9E869FFF767F910E0A86902286A
:1044400005D10022298CE869FFF7EAFA07E0A8699C
:10445000012804D10122298CE869FFF7E1FA2068DC
:1044600000688D4901402068016020688068012152
:10447000884321688860206800682021884321687B
:104480000860206800684021884321680860082689
:1044900020680662022021680862102721680F62E6
:1044A0000421226811620121226811622268926946
:1044B000324323689A61AA680192226817622268CF
:1044C000106220680662042022681062206801627F
:1044D000206880693043216888612000FBF76EFF07
:1044E000A86801F059FF0120C043019909680861DB
:1044F0002000FBF763FF206880690643206886611F
:104500002068806907432068876100208C21605003
:1045100020208821605007B0F0BD0000140000206A
:10452000180000200000FFFF2810002038B504000C
:10453000002C02D10020C0433CE02568A068002880
:1045400013D12868C069C0070BD42868C0698007E8
:1045500007D42868C069400703D42868C0690007E9
:1045600003D5FFF7BFF8A06011E02868C069C00755
:104570000DD42868C069800709D42868C06940073D
:1045800005D42868C069000701D40020A060A06895
:1045900000280ED0FFF7A6F8A168401AFB2808D320
:1045A0000020A0602800FFF7E5FE03202074012012
:1045B00000E0002032BDF8B586B007000C00150001
:1045C0000C9E002C02D10020C0435FE0002D02D1E0
:1045D0000020C0435AE03800C0B2002803D00228AF
:1045E0001BD006D34EE0E66225636846008BA086AA
:1045F0004BE0266265626846008B2085206A274969
:10460000884209D12068009000980068006808215D
:10461000884300990968086037E06661A5616846CB
:10462000008BA0836069401E01280FD96649401A9B
:1046300027D1A08B0190002002900220039003203C
:10464000049001A9A069FFF75FF81AE0A08B019020
:10465000012002900320049001A9A069FFF754F8FB
:104660006069022805D10022A18BA069FFF7D8F963
:1046700007E06069012804D10122A18BA069FFF73E
:10468000CFF902E00020C04300E0002007B0F0BDF9
:104690002010002024100020FFFEFFFF0000FFFF7D
:1046A00000B50100002902D10020C04304E0002031
:1046B00002000A744882002000BD38B50400002CB6
:1046C00002D10020C04314E02068002802D100205D
:1046D000C0430EE025682800FFF74CFE2800FBF7DA
:1046E00031FD2800FBF7ECFC0320207400206082E1
:1046F000002032BDF8B586B00400002630006946BF
:104700000870002C02D10020C04359E02068002826
:1047100002D10020C04353E025682800FFF72AFE9D
:104720002800FBF7CDFD2800FBF70CFD0700380043
:10473000C0B2002802D00020C04341E0012001F0B7
:1047400079FC2800FBF7BCFC6946087068460078D5
:10475000002802D00020C04332E0B348216A8142E1
:1047600005D129680968082291432A6811606169A6
:1047700081420BD1A08B019002960220039003206E
:10478000049001A9A069FEF7BFFF16E06069022846
:1047900008D1A069002810D00022A18BA069FFF7E2
:1047A0003FF90AE06069012807D1A069002804D018
:1047B0000122A18BA069FFF733F9012020740020AA
:1047C00007B0F0BD00000000FFFFFEFF00B50100D4
:1047D00000221000FCE7FEB588B00600129F002EF4
:1047E00005D03068002802D00898002802D10020A7
:1047F000C04398E03468089820600998606010A869
:104800000078072802D008280BD015E00AA8007805
:104810004E2803D180204005A0600FE00020A0605A
:104820000CE00AA800784E2802D10020A06005E024
:1048300080204001A06001E00020A06011A8007865
:10484000012802D0022803D006E00020E06005E045
:1048500080208001E06001E00020E0600AA800788C
:10486000452807D04E2802D04F2807D00AE0002064
:10487000206109E08020C000206105E0C020C00068
:10488000206101E0002020610C2060610025A5610D
:10489000E5612000FBF756FC052001F0CBFB200072
:1048A000FBF70EFC002F37D0776000971022002115
:1048B00004A8FEF71EFF0C22002101A8FEF719FF35
:1048C0000F2000994860009885608B480099C86067
:1048D0000098056100988561009801F0F5FC0028BA
:1048E00002D08648FFF772FF80204001049004A99F
:1048F000009801F063FE002803D0B4208000FFF789
:1049000065FF0195039501A9009802F0A1FD00281B
:1049100002D07B48FFF75AFF280070821398F0609E
:10492000B560357400200BB0F0BDFEB586B0040054
:104930000026300069460870002C05D02068002849
:1049400002D00698002802D10020C04369E0256803
:10495000A069002823D0A08B002820D060693249AC
:1049600088420BD1A08B0190029602200390032075
:10497000049001A9A069FEF7C7FE10E06069022853
:1049800005D10022A18BA069FFF74AF807E0606912
:10499000012804D10122A18BA069FFF741F8206A08
:1049A0002149884205D12868006808218843296880
:1049B0000860102029680862022729680F62082110
:1049C0002A68116204222B681A6201222B681A627B
:1049D0002A6892690A432B689A612A68926911438E
:1049E0002A68916129688969084329688861267461
:1049F000012206992800FBF7C9FB01000800C0B29C
:104A0000002803D00800C0B2022808D1207C00286A
:104A100002D0207C012802D12774002001E0C9B215
:104A2000484209B0F0BD00000000FFFFF8B586B0B5
:104A300004000E001700002069460870002C04D006
:104A40002068002801D0002E02D10020C04350E091
:104A500025682800FBF796FE202808D02800FBF7E1
:104A600071FB2800FBF72CFB0020C04341E0A0694C
:104A7000002823D0A08B002820D0606921498842DB
:104A80000BD1A08B01900120029002200390032003
:104A9000049001A9A069FEF737FE6069022805D1DC
:104AA0000122A18BA069FEF7BBFF07E06069012826
:104AB00004D10022A18BA069FEF7B2FF206A114940
:104AC000884205D1286800680821014328680160F0
:104AD0003A0092B231002800FBF789FB0100080080
:104AE000C0B2002802D00020C04302E0022020749F
:104AF000002007B0F0BD000088130000CB020000CA
:104B0000D60200000000FFFF00B50100102901D30C
:104B1000002003E0082041433848081800BD10B5C4
:104B200004002000FFF7F0FF01003548814202D366
:104B30008020000607E033480A6804236343C2501C
:104B400004225443005910BDF3B585B0002425005C
:104B50000020002102AA03C2083A00942600102E69
:104B600008DA3000FFF7DBFF264904227243885041
:104B7000761CF4E7244E022030601F20B06001272D
:104B8000F76002F0E2FC80200002204908606946DC
:104B9000300002F049FD002801D000BFFDE7102CD5
:104BA00026DA08206043154946180598864204D144
:104BB0000698144904226243885012480421614334
:104BC0004258D31700200021C9431043194302AAB9
:104BD00003C2083A02A80CC808383100012002F0CC
:104BE0007FFC002801D13D0000E06D1E641CD6E76B
:104BF00002F0BDFC280007B0F0BD000000F800087E
:104C000000000108940F0020001000201020024036
:104C1000F8B505000C000020C04300902800FFF705
:104C20007EFF0700BC4201D1002007E02800FFF70B
:104C30006BFF060021003000FFF786FFF2BDFEE7A4
:104C400070B4103A03D378C9103A78C0FBD2530736
:104C500001D318C918C001D508C908C0D20704D3A8
:104C60000B880380891C801C002A01D50B780370F7
:104C700070BC70478B0701D18307E1D0124205D089
:104C80000B78491C0370401C521EF9D17047FEE797
:104C90001206130A1A43130C1A4300BF094205D027
:104CA000830705D00270401C491EF9D170470000EF
:104CB0001300103906D330B41400150010393CC06D
:104CC000FCD230BC490700D30CC000D504C0890019
:104CD00002D30280801C002900D502707047FEE7D5
:104CE00070B50300FF2420000D00691EADB2002D39
:104CF0000DD00500EDB21E786E4032005B1C074DF2
:104D0000AD5C65402800064DAD5C2C00ECE7C0B200
:104D10000002E4B2204380B270BD00001C000020FD
:104D20001C01002038B504000D002800811E89B246
:104D30002000FFF7D5FF01006019801E00780202F5
:104D40006019401E007802430800130080B29BB235
:104D5000984201D1002001E00F20C04332BD38B598
:104D600005000C00210089B22800FFF7B9FF32BD11
:104D700000B50100002902D10020C04300E04878BE
:104D800000BDFEB505000C0017001E0000200190BC
:104D9000002D02D10020C0430CE0002C02D10020E5
:104DA000C04307E000963B009BB22200291D022071
:104DB000FFF701FCFEBDFFB581B005000B9F002091
:104DC0000400060001006A461180002D02D1002077
:104DD000C0437AE16946097AC91E01296BD9C91E07
:104DE00000D191E0891E08D0083900D1B8E03139EE
:104DF0002AD07F3900D10DE150E1002F02D10020EF
:104E0000C04362E16946097B220092B2A954641C46
:104E10006946097A220092B2A954641C010022005A
:104E200092B2A954641C210089B26854641C388869
:104E300080B2000A210089B26854641C38882100BD
:104E400089B26854641C2CE1002F02D10020C043B9
:104E50003BE1398800290ED0398801290BD03988E7
:104E6000022908D03988032905D03988042902D0BD
:104E70000020C04329E16946097B220092B2A9546F
:104E8000641C6946097A220092B2A954641CAB21C1
:104E9000220092B2A954641CDC21220092B2A954CF
:104EA000641C210089B26854641C3888210089B2CE
:104EB0006854641CF5E06846007B210089B26854A0
:104EC000641C6846007A210089B26854641C6846F4
:104ED000008A80B2000A210089B26854641C6846C6
:104EE000008A210089B26854641C6846008D80B233
:104EF000000A210089B26854641C6846008D2100B4
:104F000089B26854641CCCE0002F02D10020C04359
:104F1000DBE06846007B210089B26854641C684667
:104F2000007A210089B26854641C6846008A80B205
:104F3000000A210089B26854641C6846008A210076
:104F400089B26854641C388880B2000A210089B292
:104F50006854641C3888210089B26854641CA0E03D
:104F6000002F02D10020C043AFE06946098D7C29A3
:104F700002DB0020C043A8E06946097B220092B210
:104F8000A954641C6946097A220092B2A954641C8F
:104F90006946098A89B2090A220092B2A954641C9E
:104FA0006946098A220092B2A954641C6946098D97
:104FB00089B2090A220092B2A954641C6946098D7B
:104FC000220092B2A954641C6946098D0222514301
:104FD000220092B2A954641C060030006946098D73
:104FE00080B2884215D2300080B202214143785A03
:104FF00080B2000A210089B26854641C300080B27B
:1050000002214143785A210089B26854641C761CFD
:10501000E3E746E0002F02D10020C04355E0694697
:10502000098D022902D00020C0434EE06946097B69
:10503000220092B2A954641C6946097A220092B2F5
:10504000A954641C6946098A89B2090A220092B2ED
:10505000A954641C6946098A220092B2A954641CAE
:10506000060030006946098D80B2884215D23000B2
:1050700080B202214143785A210089B26854641CED
:10508000300080B202214143785A80B2000A2100E8
:1050900089B26854641C761CE3E702E00020C04338
:1050A00013E0210089B22800FFF71AFE0100080072
:1050B00080B2000A220092B2A854641C20000A00A8
:1050C00003009BB2EA54401C80B205B0F0BD00B5AD
:1050D0000200002A02D10020C04313E0080080B281
:1050E00000280DD0F02053780340802B03D0537854
:1050F0001840902802D10120C04303E0002001E0C5
:105100000020C04300BD10B502000023002A02D1D8
:105110000020C0432EE0080080B2002802D1002009
:10512000C04327E0080080B2FF2802DD0020C04312
:1051300020E05078C01E01280CD9C01E0FD0801E60
:1051400014D008380BD0001F0DD02D380ED07F386A
:1051500007D00DE0507902246043401D0AE008208A
:1051600008E0862006E00020C04303E0082001E0BC
:105170000020C04310BDF8B584B00400002603969B
:10518000002C02D10020C0432CE080256D00029548
:105190000196A22040002718019A02993800FFF7D3
:1051A00077FD9120800026509220800026500095A7
:1051B000350027003C372A0000993800FFF768FDCA
:1051C0009E2040002650A02040002650201DFFF7C2
:1051D00067FA0100002902D50020C04302E0022046
:1051E0006070002005B0F0BD30B502000020C04363
:1051F0000300002A4AD00C00A4B2002C46D00C00B8
:10520000A4B2FF2C03DC0C00A4B2052C00DA3DE0B4
:105210005478E41E012C0CD9E41E0AD0A41E08D038
:10522000083C0DD0241F25D02D3C02D07F3C18D047
:1052300029E0080080B2082801D10020030024E002
:105240000C00A4B2092C0ADB0C00A4B29579093534
:10525000AC4202D10020030002E0030000E00300A2
:1052600013E00C00A4B2862C02D10020030000E061
:1052700003000AE00C00A4B2052C02DB00200300AE
:1052800000E0030001E000200300180030BDF3B58A
:1052900081B0040000252E0000952F00002C02D1C3
:1052A0000020C04382E16078022824D16846007A59
:1052B000002807D1FEF716FA9E21890060500420CD
:1052C000607018E09E204000225892B221003C31CC
:1052D000201DFFF7ABFB0600002E05D5B448B549ED
:1052E00008600720607057E1FEF7FCF99D218900F6
:1052F000605003206070607803285DD1207D012814
:1053000037D16846007A012802D10620607043E157
:1053100093208000205C002828D09A208000235A07
:1053200092208000225892B2A22040002118201D15
:10533000FFF7FBFA06000B20C043864205D19E48CA
:105340009C4908600720607026E1002E06D5C62023
:10535000800098490860072060701DE1FEF7C2F9DF
:105360009E21890060500420607002E00620607079
:1053700012E1207D022815D1FEF7B4F900909C209F
:105380008000205800999D229200A258891A8842D4
:1053900008D2201DFFF791F90720607087488549E2
:1053A0000860F9E0207D032806D1CE2080008149E5
:1053B000086007206070EFE06078042800D0EBE020
:1053C000201DFFF7B3F80600002E05D57C4879496B
:1053D000086007206070DFE0207D002826D19A2039
:1053E0008000235A92208000225892B2A2204000CE
:1053F0002118201DFFF799FA06000B20C0438642B2
:1054000005D170486B49086007206070C4E0002E29
:1054100005D56D486749086007206070BCE0FEF75D
:1054200061F99E218900605004206070207D012870
:1054300000D087E06846007A032802D10620607019
:10544000AAE091208000215889B2A22040002018B3
:10545000FFF73DFE002805D55C4856490860072047
:10546000607099E092208000205880214900884295
:1054700015D19120800020580700912080002158EC
:1054800089B2A22040002018FFF7AEFE0600002ED1
:105490000ED5092060704E48464908607CE09E2089
:1054A0004000215889B220003C30FFF72CFE070055
:1054B0009120800020583900C9B288423CD1912007
:1054C00080002058052805D20920607041483949DC
:1054D000086061E0A2204000205C002818D09320E2
:1054E0008000205CA2214900615C884210D03A48CB
:1054F000205C00280CD03848205CA2214900615C67
:10550000884205D00820607034482A49086043E08A
:10551000912080002158A22040002018FFF702FCB3
:105520000600002E05D5092060702D48214908602D
:1055300032E0062060702FE02A481E4908600920EA
:10554000607029E0207D02281DD19B20800020581A
:105550000021C943884216D0FEF7C4F800909B2072
:105560008000205800999E229200A258891A8842F1
:1055700009D2201DFFF7A1F807206070F2208000FB
:105580000C49086008E0207D032805D1F420800044
:10559000084908600720607060780728607806284E
:1055A00004480168012900DB05606078FEBD000049
:1055B000F50200002C10002012030000310300004F
:1055C000460300005303000059030000710300006C
:1055D00082030000930300004D0200009E030000C0
:1055E000AA030000B5030000FEB584B00400002744
:1055F00002970397002C01D10220C7E02000FFF79B
:10560000B7FB05000026F643B54201D10220BDE0FC
:10561000072D05D0082D03DA062D01D0002D34D139
:105620002000FFF7A8FD02900298B04201D10220AD
:10563000ACE00C9801906846008B00906846838A25
:1056400093208000225C6846017C20003C30FFF7FC
:10565000B2FB0600002E01D5022097E09E204000FC
:1056600026509E204000215889B220003C30FFF790
:105670004AFD0500002D01D5022087E09220800020
:10568000255002209F21890060549F208000215CCA
:105690002000FFF7FCFD02001000401E0BD0801E12
:1056A000022808D9C01E56D0401E06D0401E38D051
:1056B000401E1CD069E0380068E09420800020186B
:1056C00003C80023401C594194239B00E31803C3E3
:1056D000083B98208000201803C80023401C594133
:1056E00098239B00E31803C3083B02204EE094205C
:1056F0008000201803C80023401C594194239B00BC
:10570000E31803C3083B96208000201803C8002339
:10571000401C594196239B00E31803C3083B042017
:1057200034E094208000201803C80023401C594115
:1057300094239B00E31803C3083B962080002018A5
:1057400003C80023401C594196239B00E31803C360
:10575000083B03201AE094208000201803C800238F
:10576000401C594194239B00E31803C3083B962037
:105770008000201803C80023401C594196239B0039
:10578000E31803C3083B012000E0022007B0F0BD8E
:10579000FEB584B00400002500950395002C01D1CE
:1057A0000220A1E00498002801D102209CE0684674
:1057B000808A002801D1022096E02000FFF7D8FA65
:1057C00007000026F643B74201D102208CE0072FE4
:1057D00005D0082F03DA062F01D0002F29D1200091
:1057E000FFF7C9FC0700B74201D102207CE0802608
:1057F00076006846808AB04201D3022074E0684691
:10580000808A02900498019020003C300090029A17
:1058100001990098FFF72EFA00986846808A9E2129
:105820004900605092208000265003209F2189006B
:1058300060549F208000215C2000FFF728FD0600B7
:105840003000401E07D0801E022804D9C01E1ED082
:10585000401E02D047E0280046E094208000201837
:1058600003C80022401C514194229200A21803C296
:10587000083A98208000201803C80022401C51419B
:1058800098229200A21803C2083A02202CE0942029
:105890008000201803C80022401C5141942292002D
:1058A000A21803C2083A96208000201803C80022DC
:1058B000401C514196229200A21803C2083A91203E
:1058C000800020580090A22040002518069F009AD2
:1058D00029003800FFF7CEF99120800020580C995C
:1058E0000880012000E0022007B0F0BDF7B582B0CB
:1058F0000400002600960196002C01D10220C9E088
:105900000398002801D10220C4E00498002801D1A6
:105910000220BFE02000FFF72BFA05000027FF431D
:10592000BD4201D10220B5E0072D05D0082D03DAD4
:10593000062D01D0002D1AD12000FFF71CFC00908D
:105940000098B84201D10220A4E03900200000F004
:1059500073FA0500BD4201D102209BE08020400087
:1059600092218900605030009F21890060549F205F
:105970008000215C2000FFF78AFC07003800401EF1
:105980000BD0801E022808D9C01E56D0401E06D05B
:10599000401E38D0401E1CD07BE030007AE09420BE
:1059A0008000201803C80022401C5141942292001C
:1059B000A21803C2083A98208000201803C80022C9
:1059C000401C514198229200A21803C2083A0220BA
:1059D00060E094208000201803C80022401C514140
:1059E00094229200A21803C2083A96208000201840
:1059F00003C80022401C514196229200A21803C203
:105A0000083A042046E094208000201803C80022B1
:105A1000401C514194229200A21803C2083A9620D9
:105A20008000201803C80022401C51419622920099
:105A3000A21803C2083A03202CE09420800020180A
:105A400003C80022401C514194229200A21803C2B4
:105A5000083A96208000201803C80022401C5141BB
:105A600096229200A21803C2083A91208000205882
:105A70000090A22040002518039E009A29003000C3
:105A8000FFF7F8F891208000205804990880012041
:105A900000E0022005B0F0BD10B50400002C01D1DB
:105AA000022005E0201DFEF725FE06206070002084
:105AB00010BDF6B583B00400002500950295002CBA
:105AC00001D10220BAE00398002801D10220B5E0FC
:105AD0006846008A002801D10220AFE02000FFF7CD
